:400000000080002011000000F9070000F907000080B500AF024A034B1B68136000F0F6FBBC760040FA46004010B5054C237833B9044B13B10448AFF300800123237010BD26
:400040005081FF1F0000000030310000084B10B51BB108490848AFF300800848036803B910BD074B002BFBD0BDE81040184700BF000000005481FF1F30310000C880FF1F30
:400080000000000080B400AF284B1B78DBB2012B0CBF01230023DAB2254B1B78DBB2012B0CBF01230023DBB21340DBB21A46214B1B78DBB2012B0CBF01230023DBB21340BB
:4000C000002B03D01C4B01221A702BE01B4B1B78DBB2012B09D1154B01221A70174B00221A70174B01221A701CE0154B1B78DBB2012B09D10E4B01221A70114B00221A709D
:40010000104B01221A700DE00E4B1B78DBB2012B08D1084B01221A700A4B00221A70074B01221A7000BFBD4680BC70476C81FF1F6D81FF1F6F81FF1F7181FF1FCC80FF1FF8
:400140006E81FF1F7081FF1F80B400AF054B1B889BB201339AB2034B1A8000BFBD4680BC704700BF7281FF1F80B584B000AF0346FB710023FB730EE00A2000F03FFFFB7B39
:400180000133FB73FA7BFB79642101FB03F39A4201DD012306E0012001F02EFC0346012BEAD1002318461037BD4680BD80B584B000AF78600120FFF7D7FF0346012B2ED0B5
:4001C0000023FB8126E00220FFF7CEFF0346012B27D0FB892033B3F5806F0FDDFB89C3F58063BB81FB895B007A68D118BB895B009BB21A46012001F015FC08E0FB895B0074
:400200007A68134440221946012001F00BFCFB892033FB81FB89B3F5806FD4D302E000BF00E000BF1037BD4680BD00BF80B500AF01F08AF9554801F009FA00F03FFF62B6E1
:400240000121002001F050FA00BF01F0C9FB0346002BFAD041F6FF734FF480420121022001F040F903461A46494B1A7000F0FCFD03461A46474B1A7000F0F6FD03461A4632
:40028000444B5A7000F0F0FD03461A46414B9A70404B18783F4B5A7806234FF4006100F011FE3C4B58783B4B9A7806234FF4006100F008FE374B9878364B1A7806234FF4C3
:4002C000006100F0FFFD334B1B78334A92B245F6A031184600F036FE2E4B5B782F4A92B245F6A031184600F02DFE2A4B9B782C4A92B245F6A031184600F024FE244B1A7804
:40030000244B1B781946104600F040FD204B1B780121184600F086FC224801F095F800F00BFB0A2000F048FE00F0E0FB1E4B1B78DBB2012B07D11D4800F0A4FF4FF47A702E
:4003400000F03AFEF7E71A4B1B78DBB2002B05D01148FFF72BFF164B00221A70154B1B78DBB2002B05D00D48FFF720FF114B00221A70114B1B78DBB2002BD7D00848FFF7E6
:4003800015FF0D4B00221A70D0E700BF490100008E91FF1F8881FF1F8C81FF1F8C89FF1F9091FF1F850000007181FF1F343100006C81FF1F6D81FF1F6F81FF1F80B582B0DE
:4003C00000AF786039603A680021786802F0A7FE00BF0837BD4680BD80B584B000AFF860B9607A607A68B968F86802F08DFE00BF1037BD4680BD00BF80B487B000AF78602B
:40040000396000233B6100237B6127E07B699B007A6813441B68BB60BB68FB73BB6823F0FF03BB6014E03B695B003A6813441B781A46BB68134419463B695B003A68134474
:400440005B780B703B6901333B61FB7B013BFB73FB7B002BE7D17B6901337B617B691C2BD4D900BF1C37BD4680BC704780B582B000AF3C4B11221A803B4B18221A703B4B33
:4004800002221A803A4B19221A70042239493A48FFF7A2FF394B06221A70394B52221A70384B394A1278D2B21A70384B00221A80374B4FF4E1621A80364B41F251221A807B
:4004C0000023FB7019237B6014E0FB785B00DAB2314B1B78DBB203F00103DBB21343DBB203F00303FB704FF4F07002F0A1FD7B68013B7B607B68002B02D0FB78032BE4D13F
:40050000224B07221A70254B00221A70244B48221A701E4B00221A70224B00221A70224B02221A70214B04221A70214A204B1B78DBB243F00303DBB213701E4A1D4B1B7815
:40054000DBB243F00103DBB213701B4A1A4B1B78DBB263F07F03DBB2137000BF0837BD4680BD00BF8040004082400040844000408640004078040048004100400043004007
:4005800000420040A14600400F01004904400040224200402042004025420040064000400840004009400040014000400B400040A2430040A1430040A043004080B582B052
:4005C00000AF1E4B1B78FB711D4B1B78BB711D4B1B787B711C4AFB7903F00703DBB213701A4AFB791B09DBB21370154ABB7943F00303DBB21370134A7B7943F00303DBB2F0
:400600001370134B02221A70124B80221A70124B20221A70114B20221A700A2000F0EEFC084A7B791370064ABB7913700C4B44221A7000BF0837BD4680BD00BFCF01004920
:40064000F8460040F94600406E5800406F5800400D51004001590040205B0040235B00407658004080B586B000AF72B64E4A4E4B1B78DBB243F00403DBB213700023FB7541
:4006800013E0FA7D13465B0013445B00474A13443B613B691A683B699B889BB219461046FFF78CFEFB7D0133FB75FB7D072BE8D90023FB751CE0FA7D13469B0013445B0044
:4006C0003B4A1344FB60FB681B68BB60FB685B687B60FB681A7A5B7A1B0213437B807B881A467968B868FFF777FEFB7D0133FB75FB7D002BDFD02F494FF09040FFF77CFE53
:4007000004212D48FFF75AFE2C4A2C4B1B78DBB243F00203DBB21370294A294B1B78DBB243F00203DBB21370264A264B1B78DBB243F04003DBB21370234A234B1B78DBB2AB
:4007400043F01003DBB21370082220492048FFF743FE0A221F492048FFF73EFE0A221F491F48FFF739FE08221E491F48FFF734FE1E4A1E4B1B78DBB243F00803DBB213703C
:400780001B4B61221A70FFF771FE194B81221A70FFF714FF0E220B491648FFF71DFE00BF1837BD4680BD00BFE8460040403100007031000074000048007600400350014041
:4007C00013500140A0430040C2430040500400480251004058040048C051004064040048F051004070040048125100402243004000480040B043004080B500AF02F058FCAF
:4008000003461B680C2B00D1FEE7FEE780B586B000AF224B7B61224B3B61204B7B6135E03B691B68FB603B695B68BB603B699B683B6000237B600CE0FB681A68BB681A60A0
:40084000BB680433BB60FB680433FB607B6804337B607A683B689A42EED13B69DB683B6000237B6008E0BB6800221A60BB680433BB607B6804337B607A683B689A42F2D144
:400880003B6910333B617B69013B7B617B69002BC6D102F013FCFFF7C9FCFEE7010000005432000080B582B000AF194B194A1A60194A194B1B6843F40073136000237B602F
:4008C0000FE07B68032B04D8144A7B6852F8233000E0134B13497A6841F822307B6801337B607B682F2BECD90F4B1B78DAB20F4B1A700F4B0B4A1A60FFF7B4FE00F064F9C8
:400900000C4B00221A6000BF0837BD4680BD00BF0CED00E00004FA0514ED00E000000000F90700000080FF1FBC760040C480FF1F08ED00E0C080FF1F80B500AF064B1B789D
:40094000002B04D100F00AF8034B01221A7000F029F800BF80BD00BF7481FF1F80B500AF102000F017F90721002000F083FB0A49002000F057FB094A084B1B78DBB243F033
:400980000603DBB213700C2000F086F8044B00221A8000BF80BD00BF890B0000015900409899FF1F80B582B000AF02F049FB0346FB712E4A2D4B1B78DBB243F00103DBB26C
:4009C00013702B4A2A4B1B78DBB243F00103DBB21370284A274B1B78DBB243F00103DBB21370254A244B1B78DBB243F00103DBB21370224B1B78BB71BB7943F00203BB71CF
:400A0000BB7943F00103BB711C4ABB7913701C4B18221A701B4A1B4B1B78DBB243F04003DBB21370174A174B1B78DBB223F00303DBB21370144BC8221A70144B02221A707A
:400A4000134A134B1B78DBB243F00803DBB213700A2000F0D3FA0F4B01221A60FB79184602F0F2FA00BF0837BD4680BDAB430040BB430040A1430040B14300400359004021
:400A800006590040055900400059004014460040275B004080E200E080B584B000AF0346FB71FB790A2B07D00C2B02D0082B06D008E0C223FB730BE08223FB7308E04223DD
:400AC000FB7305E0C223FB73002000F069FA00BF054AFB7B1370FB79184600F017F800BF1037BD4680BD00BF0259004080B400AF054A054B1B78DBB243F00103DBB213707C
:400B000000BFBD4680BC70470059004080B584B000AF0346FB71FB790A2B08D00C2B02D0082B08D00BE04FF48053FB600DE04FF48063FB6009E04FF48073FB6005E00023B9
:400B4000FB60002000F02CFA00BF0C4B00221A80FB6842F2107202FB03F303F58063002B01DA03F2FF73DB121A46054B1A60054B00221A8000BF1037BD4680BD9099FF1F0E
:400B80009499FF1F9299FF1F80B400AF00BFBD4680BC704780B483B000AF0346FB710949084B1B78DBB25AB297F9073023F007035BB213435BB2DBB20B7000BF0C37BD460C
:400BC00080BC70470241004080B483B000AF134B7F221A70124B80221A707F23FB710CE0FB79DB0003F1804303F5F043FA79013AD2B21A70FB79013BFB71FB79002BEFD1F5
:400C0000FB79DB0003F1804303F5F04300221A7000BF0C37BD4680BC704700BFD180FF1FD080FF1F80B485B000AF03460A46FB711346BB710123FB60FB79172B2FD8BB7931
:400C4000002B0ED0FB791A01184B1344FA791101164A0A441278D2B242F02002D2B21A700DE0FB791A01114B1344FA7911010F4A0A441278D2B222F02002D2B21A70FB7960
:400C80001A010A4B1344FA791101084A0A441278D2B242F00102D2B21A700023FB60FB6818461437BD4680BC704700BF1070004080B485B000AF03460A46FB711346BB7156
:400CC0000123FB60FB79172B1BD8FB791A01104B13441B78DBB223F00E03FB72FB791A010B4B1344BA795200D2B252B202F00E0251B297F90B200A4352B2D2B21A7000234F
:400D0000FB60FB6818461437BD4680BC704700BF1070004080B485B000AF0346FB710B46BB8013467B800123FB60BB8841F6FF72934202D14FF40053BB807B8841F6FF729C
:400D4000934202D14FF400537B80FB79172B17D8FB79DB0003F1804303F5EC430433BB60BB68BA881A80FB79DB0003F1804303F5EC430633BB60BB687A881A800023FB6059
:400D8000FB6818461437BD4680BC704780B485B000AF03460A46FB711346BB710123FB60FB79172B07D8FB791A01064B1344BA795A720023FB60FB6818461437BD4680BC7C
:400DC000704700BF1070004090B484B000AF0446084611461A462346FB710346BB710B467B7113463B710123FB60FB79172B34D8FB79DB0003F1804303F5EC43BA7902F028
:400E00007F02D1B27A79D201D2B20A43D2B21A70FB79DB0003F1804303F5EC433A7E1201D1B23A7902F00F02D2B20A43D2B25A70FB79DB0003F1804303F5EC433A7F02F0E1
:400E40000F02D2B29A70FB79DB0003F1804303F5EC430022DA700023FB60FB6818461037BD4690BC704700BF80B582B000AFFF23FB7102F0E5F80346BB71104B1B78182BD6
:400E800012D90F4B1B78FB710C4B1B78013BDAB20A4B1A70FB79DB0003F1804303F5F0431B78DAB2064B1A70BB79184602F0CCF8FB7918460837BD4680BD00BFD080FF1F6C
:400EC000D180FF1F90B484B000AF0446084611461A462346FB710346BB800B46BB711346FB700123FB6097F90730002B23DBBB8823F47F6323F00F039BB2002B1BD1FB79CB
:400F0000DB0003F1804303F5F043BB60BB68BA881A80FB79DB0003F1804303F5F043BA799A70FB79DB0003F1804303F5F043FA78DA700023FB60FB6818461037BD4690BCAA
:400F4000704700BF80B485B000AF0346FB710B46BB8013467B800123FB6097F90730002B17DBFB79DB0003F1804303F5F0430433BB60BB68BA881A80FB79DB0003F1804363
:400F800003F5F0430633BB60BB687A881A800023FB60FB6818461437BD4680BC704700BF80B483B000AF0346FB7101BE00BF0C37BD4680BC704700BF80B582B000AF786085
:400FC00008E00C4B1B68184602F032F87B68A3F500437B607B68B3F5004FF2D8064B1B687A6802FB03F3184602F022F800BF0837BD4680BDE480FF1FDC80FF1F80B582B0C4
:4010000000AF0346FB80FB88054A127802FB03F3184602F00DF800BF0837BD4680BD00BFE080FF1F80B584B000AF03463960FB710F4B1B68FB60FB791F2B02D90020FFF7D1
:40104000AFFFFB7903F01F0310339B00FA6813441B68BB60FB7903F01F0310339B00FA6813443A681A60BB6818461037BD4680BD08ED00E080B582B000AF03460A46FB71D0
:401080001346BB71BB79072B02D90020FFF788FFFB791F2B02D90020FFF782FFFB7903F01F0303F1604303F56443BA795201D2B21A7000BF0837BD4680BD00BF80B500AF69
:4010C000064B1B78002B04D100F00AF8034B01221A7000F03BF800BF80BD00BF7681FF1F80B500AF11490120FFF79CFF07210120FFF7C0FF0E4B00221A700E4B72221A70C2
:401100000D4B20221A700D490220FFF78BFF07210220FFF7AFFF0A4B06221A70094B47221A70094B02221A7000BF80BDC91200007C81FF1F8B6500408A650040A113000050
:4011400029650040396500408865004080B582B000AF01F075FF0346FB71154A144B1B78DBB243F02003DBB21370124A114B1B78DBB243F01003DBB213700F4B02221A60FC
:401180000E4A0E4B1B78DBB243F01003DBB213700B4B04221A60084B04221A6000F03AF9FB79184601F050FF00BF0837BD4680BD9B6500409A65004000E100E0986500402F
:4011C00080E200E080B485B000AF0346FB71274B1B88FB81264B1B88BB81FA89BB899A4208D2FA89BB89013B9A420CBF01230023DBB209E0FA89BB89D31A41F287329342A6
:401200000CBF01230023DBB2002BE0D1BA89FB899A420AD1174B1B78DBB203F00403002B03D1154AFB7913701AE0FB8941F28732934201D90023FB81FB891049FA79CA54BE
:40124000FB890133FB81094AFB891380094B1B78DBB203F00203002B02D0094B04221A6000BF1437BD4680BC704700BF7A81FF1F7881FF1F68650040486500409C99FF1F37
:4012800000E200E080B584B000AF78600023FB810C4B1B78002B10D009E0FB897A6813441B781846FFF78EFFFB890133FB81FB897A6813441B78002BEFD100BF1037BD4656
:4012C00080BD00BF7681FF1F80B483B000AF0023FB712B4B1B78BB71BB797B71BB7903F01E03002B0CD097F9063003F01E035AB2244B1B785BB213435BB2DAB2214B1A70BA
:40130000BB7903F02003002B30D01F4B1B787B711E4B1B78DBB219461D4A7B7953540123FB71FB79002B21D01A4B1B78DBB2002B02D0194B01221A70144B1B78DBB20133FF
:40134000DAB2124B1A70114B1B78DBB2092B02D90E4B00221A700D4B1B78DAB20F4B1B78DBB29A4202D10B4B01221A70BB7903F02003002BADD100BF0C37BD4680BC7047DC
:401380006A6500407C81FF1F4B6500407E81FF1F24ADFF1F7F81FF1F8081FF1F7D81FF1F80B400AF19E0164B1B889BB241F28732934202D9124B00221A80124B104A12887B
:4013C00092B21146104A525CD2B21A700C4B1B889BB201339AB20A4B1A80094B1B889AB20A4B1B889A4206D0094B1B78DBB203F00403002BD7D000BFBD4680BC704700BFE5
:401400007881FF1F486500409C99FF1F7A81FF1F6865004080B400AF094A094B1B78DBB243F00203DBB21370064A064B1B78DBB243F00203DBB2137000BFBD4680BC70477F
:40144000A2430040B243004080B582B000AF786000F03CF8786800F009F8072000F018F800F028F800BF0837BD4680BD80B485B000AF7860054B1B68FB60FB6854337A68D0
:401480001A6000BF1437BD4680BC704708ED00E080B483B000AF0346FB71054AFB795B01DBB2137000BF0C37BD4680BC704700BF05E400E080B400AF034B20221A6000BFB7
:4014C000BD4680BC704700BF00E100E080B400AF034B20221A6000BFBD4680BC704700BF80E100E090B585B002AF0446084611461A462346FB710346BB710B46BB8013462B
:401500007B80104B00221A700E4B1878BA79F97900230193002300930023FFF755FC094B1B787A88B9881846FFF7F4FB054B1B7802211846FFF7BCFB024B1B7818460C3745
:40154000BD4690BDE880FF1F80B500AF224A224B1B78DBB203F00103DBB213701F4A1F4B1B78DBB223F00303DBB213701C4A1C4B1B78DBB223F03003DBB21370184A184B8D
:401580001B78DBB243F03003DBB21370144A144B1B78DBB223F00F03DBB21370104A104B1B78DBB243F00F03DBB213700D4A0D4B1B78DBB243F00103DBB2137045F6BF50F9
:4015C00000F022F845F6BF5000F030F8082000F00BF800BF80BD00BF004F0040024F00400B4F0040014F004080B483B000AF0346FB71044AFB79137000BF0C37BD4680BC0E
:40160000704700BF034F004080B485B000AF0346FB80FB88FB81044AFB89138000BF1437BD4680BC704700BF044F004080B483B000AF0346FB80044AFB88138000BF0C37D0
:40164000BD4680BC704700BF064F004080B582B000AF786000F03CF8786800F009F8072000F018F800F028F800BF0837BD4680BD80B485B000AF7860054B1B68FB60FB6847
:401680005C337A681A6000BF1437BD4680BC704708ED00E080B483B000AF0346FB71054AFB795B01DBB2137000BF0C37BD4680BC704700BF07E400E080B400AF034B80221B
:4016C0001A6000BFBD4680BC704700BF00E100E080B400AF034B80221A6000BFBD4680BC704700BF80E100E080B582B000AF03460A46FB711346BB71094B1B78002B04D1B2
:4017000000F010F8064B01221A70BA79FB791146184600F0BBF800BF0837BD4680BD00BF8281FF1F80B582B000AF01F089FC0346FB71484A474B1B78DBB243F00103DBB24D
:401740001370454A444B1B78DBB243F00103DBB21370424B01221A70414B02221A70414A404B1B78DBB203F07F03DBB213700020FFF744FC3C4A3C4B1B78DBB223F0060393
:40178000DBB21370394A394B1B78DBB223F02003DBB21370344A344B1B78DBB243F00103DBB213700120FFF729FC2820FFF726FC2F4A2F4B1B78DBB203F07F03DBB2137014
:4017C0002B4A2B4B1B78DBB223F04003DBB21370254A254B1B78DBB243F00203DBB213700220FFF70BFC204A1F4B1B78DBB243F00403DBB213701F4B00221A701E4B002233
:401800001A70FB79184601F01FFC07211720FFF731FC1A491720FFF705FC07211820FFF729FC17491820FFF7FDFB07210320FFF721FC14490320FFF7F5FB07210C20FFF71E
:4018400019FC11490C20FFF7EDFB00BF0837BD4680BD00BFA5430040B54300409D60004009600040106000409443004012600040F85100408460004085600040352100000B
:401880002D1B0000ED2000004121000080B582B000AF03460A46FB711346BB71294AFB791370294B00221A70284B00221A70284B00221A70274B00221A70274B00221A70CD
:4018C000264B00221A70264B00221A70254B4FF400021A60234B4FF080721A60214B08221A60BB79002B02D0012B09D011E01E4A1D4B1B78DBB223F00103DBB2137011E027
:40190000194A194B1B78DBB243F00103DBB2137008E0154A144B1B78DBB243F00103DBB2137000BF114B03221A70114B80221A70012001F07DFB0F4B04221A7000BF083788
:40194000BD4680BD3CADFF1F53ADFF1F52ADFF1F4CADFF1F51ADFF1F3DADFF1FC5ADFF1F30ADFF1F00E100E00960004028600040086000401260004080B400AF0F4B002234
:401980001A700F4B00221A700E4B00221A700E4B00221A700D4B00221A700D4B00221A700C4B00221A700C4B03221A700B4B80221A7000BFBD4680BC704700BF53ADFF1F68
:4019C00052ADFF1F4CADFF1F51ADFF1F3DADFF1FC5ADFF1F30ADFF1F286000400860004080B400AF034B1B78DBB21846BD4680BC704700BF4CADFF1F80B483B000AF0346BA
:401A0000FB71FA79064913465B0013449B000B4401331B78DBB218460C37BD4680BC704754ADFF1FB0B485B000AF03463960FB711346BB80FB79002B6DD0FB79082B6AD88A
:401A4000B988FA79364813465B0013449B00034406331B889BB2C3F5007399420CD9FA792F4913465B0013449B000B4406331B889BB2C3F50073BB802A4CF979BB881B0A74
:401A80009BB2D8B2FA79264D13465B0013449B002B4403331B78DBB20343DAB20B0123441A70204AFB79B988C9B21B01134401330A461A703B68002B13D00023FB810CE0D8
:401AC0001948FB79FA8939680A4412781B01034408331A70FB890133FB81FA89BB889A42EED3FA790E4913465B0013449B000B44013300221A700B48F979FA79084C1346D2
:401B00005B0013449B00234405331B78DAB20B01034402331A7000BF1437BD46B0BC704754ADFF1FFC5F00407060004080B582B000AF374B1B78BB71BB7903F01003002BD2
:401B400062D00123FB7197F90630002B12DABB7903F00F03012B02D00023FB711CE000F061F82C4B1B78DBB25BB2002B14DA0023FB7111E0BB7903F04003002B02D000F027
:401B800095F809E0BB7903F02003002B02D000F0B3F801E00023FB71FB79002B34D01C4B1B78BB7197F90630002B2DDB1A4B1B78DAB21A4B1B78DBB21343BB71184ABB797A
:401BC0001370174B1B78DBB2BA799A421CD1114B1B78FB710E4B1B78DBB223F07F03BB71BB79002B0AD10A4B0A4A1278D2B21A70074B1B78DBB203F00F03FB71054B1B780E
:401C0000DBB2FA799A42E2D100BF0837BD4680BD286000403FADFF1FC0ADFF1F3EADFF1F2960004080B582B000AF1D4B1B78FB711B4AFB7913701A4B1B78FB7197F90730A4
:401C4000002B03DA174AFB79137025E0022000F013FA154B1B78DBB203F06003202B08D0402B0BD0002B0ED100F070FA0346FB710CE001F0EDF90346FB7107E001F0ACF993
:401C80000346FB7102E00023FB7100BFFB79002B02D1044B03221A7000BF0837BD4680BD286000403FADFF1F0060004080B500AF104B1B78DBB2062B19D801A252F823F09E
:401CC000EF1C0000EF1C0000DD1C0000EF1C0000E31C0000EF1C0000E91C000000F0F8F806E000F075F903E000F0A0F900E000BF00BF80BD53ADFF1F80B500AF124B1B789E
:401D0000DBB2062B1DD801A252F823F0431D0000431D0000291D0000431D00002F1D0000431D0000351D000000F0D8F80AE000F0F5F807E0032000F09FF9044B03221A7075
:401D400000E000BF00BF80BD53ADFF1F3FADFF1F80B483B000AF0023FB71294B1B78DBB29AB2284B1B889BB213449AB2254B1A8015E02549FB79254A52681278D2B2CA54DF
:401D8000224B5B680133214A5360FB790133FB711E4B1B889BB2013B9AB21C4B1A801B4B1B889BB2002B02D0FB79072BE1D9144B1B78DBB2082B02D0FB79002B0FD0144B97
:401DC0001B78DBB283F07F03DB43DAB2104B1A70104B0F221A70104B02221A7005E00D4B02221A700C4B02221A700C4AFB791370034AFB79137000BF0C37BD4680BC7047A7
:401E000030ADFF1F32ADFF1F0060004040ADFF1FC0ADFF1F3FADFF1F53ADFF1F3EADFF1F80B582B000AF164B1B889BB2002B02D100F02EF81EE0134B02221A70124B00223F
:401E40001A7000F039F9114BDB79DBB29BB21B029AB20E4B9B79DBB29BB21343FB80084B1B889BB2FA889A4202D2054AFB881380FFF76EFF012318460837BD4680BD00BFAE
:401E800040ADFF1F53ADFF1FC0ADFF1F0060004080B400AF094B02221A70094B80221A70084B0F221A70084B00221A70074B00221A7001231846BD4680BC704753ADFF1FC8
:401EC000C0ADFF1F3FADFF1F30ADFF1F3EADFF1F80B500AFFFF73CFF00BF80BD80B500AF0A4B1B78DBB29AB2094B1B889BB213449AB2074B1A80074B00221A70012000F0B1
:401F0000BBF8054B03221A7000BF80BD30ADFF1F32ADFF1F53ADFF1F3FADFF1F80B483B000AF0023BB71234B1B78DBB203F00F03DBB2023BFB71FB799AB21F4B1B889BB28B
:401F400013449AB21C4B1A8018E01C4B5B681C49BA798A5CD2B21A70184B5B680133174A5360BB790133BB71FB79013BFB71134B1B889BB2013B9AB2104B1A800F4B1B8829
:401F80009BB2002B02D0FB79002BDED10D4AFB7913700D4B1B78DBB283F07F03DB43DAB2094B1A70094B0B221A7000BF0C37BD4680BC70472960004032ADFF1F40ADFF1F72
:401FC000006000403EADFF1FC0ADFF1F3FADFF1F80B500AF054B00221A70012000F04CF8034B03221A7000BF80BD00BF53ADFF1F3FADFF1F80B400AF084B06221A70084B53
:4020000006221A70074B80221A70074B00221A7001231846BD4680BC704700BF53ADFF1F3FADFF1FC0ADFF1F3EADFF1F80B500AF0D4B1B78DBB2002B0AD00C4A0A4B1B78E0
:40204000DBB263F07F03DBB21370074B00221A70074B00221A70012000F00EF8054B03221A7000BF80BD00BF3DADFF1F0860004053ADFF1F3FADFF1F80B483B000AF0346EA
:40208000FB710B4B9B68002B0CD0094B9B68FA791A70074B9B68074A128892B25A80044B00229A6000BF0C37BD4680BC704700BF40ADFF1F32ADFF1F80B400AF094B00221F
:4020C0001A80094B9B68002B07D0074B9B6800221A70054B9B6800225A8000BFBD4680BC704700BF32ADFF1F40ADFF1F80B400AF0D4B01221A700D4B9B7C0D4B1B7BDBB24F
:4021000003F00303012B08D0094BDB7BDBB283F07F03DB43DAB2064BDA73054B01225A7300BFBD4680BC70470B600040FC5F004054ADFF1F80B500AFFFF71EFC00BF80BDE4
:4021400080B500AF00F062FF00BF80BD80B586B000AF0023FB75A74B1B78FB7100233B61A54B00221A8097F90730002B80F2EC80A04B5B78DBB20A2B00F2008201A252F874
:4021800023F000BF9F2200007D2500007D2500007D2500007D2500007D250000B12100007D250000132300007D25000029230000904BDB78DBB2012B0ED100F07DFDB86082
:4021C000BB685B688C4A53608B4B12221A80FFF727FE0346FB75D3E1864BDB78DBB2022B25D1844B9B78DBB2184600F03DFDB860BB68002B00F0C481BB685B687E4A53607D
:402200007D4B5B6803331B78DBB29BB21B029AB2794B5B6802331B78DBB29BB213439AB2754B1A80FFF7FCFD0346FB75A8E1714BDB78DBB2032B2DD10023FB736F4B3B6102
:4022400009E03B691B78BB71BB793A6913443B61FB7B0133FB73674B9B78DBB2FA7B9A4204D23B691B78DBB2002BEAD13B691B78DBB2002B00F084813B691B78DBB29AB219
:402280005D4B1A805C4A3B695360FFF7C9FD0346FB7575E100F0DCFE0346FB7570E1FB7903F00303002B20D0022B00D030E0524B02221A804F4B1B79DBB203F07F02504988
:4022C00013465B0013449B000B4402331B78DAB24C4B1A704B4B00225A70474B494A5A60FFF79EFD0346FB7512E0434B02221A80454B1B78DAB2434B1A70424B00225A704B
:402300003D4B404A5A60FFF78BFD0346FB7500BF3DE1394B01221A80374B3C4A5A60FFF77FFD0346FB7532E1334B01221A80314B1B79DBB21A46364B13442F4A5360FFF74A
:402340006FFD0346FB7522E12A4B5B78DBB2013B0A2B00F2178101A252F823F06124000085250000EF24000085250000892300008525000085250000852500009D2300000F
:40238000852500001D2400001A4B9B78DAB2214B1A70FFF72FFE0346FB75F8E0154B9B787B717B79002B06D07B79013BDBB2184600F05AFCB8607B79002B02D0BB68002B78
:4023C00003D17B79002B40F0DF80104B1B78DBB27A799A4208D00D4A7B7913700E4B01221A70012000F082F9FFF704FE0346FB75CAE000BF0060004040ADFF1FAC31000037
:4024000054ADFF1F8481FF1FC5ADFF1F4CADFF1F34ADFF1F3DADFF1F52ADFF1F00F0A4FD0346002B00F0B2805B4B1B793B715A4B1B79DAB2594B1A703B79594AD35CDAB27D
:402440003B795849CB5CDBB29A4204D0564B01221A7000F0DBFAFFF7CDFD0346FB7595E0FB7903F00303012B20D0012B0CD3022B00D03BE0484B9B78DBB2002B31D100F0A6
:40248000C7FC0346FB752CE0434B9B78DBB2012B29D1464B1B78DBB223F00203DAB2434B1A70FFF7A7FD0346FB751CE03A4B1B79DBB2002B19D1384B9B78DBB2DB43DBB2FB
:4024C000354A1279D2B211461046394A125CD2B21340DAB2364B5A54FFF78CFD0346FB7503E000BF53E000BF51E000BF4FE0FB7903F00303012B20D0012B0CD3022B00D0A2
:402500003BE0254B9B78DBB2002B31D100F00CFC0346FB752CE0204B9B78DBB2012B29D1224B1B78DBB243F00203DAB21F4B1A70FFF760FD0346FB751CE0174B1B79DBB285
:40254000002B19D1144B9B78DBB2DB43DBB2124A1279D2B211461046154A125CD2B21340DAB2134B5A54FFF745FD0346FB7503E000BF0CE000BF0AE000BF08E000BF06E0D4
:4025800000BF04E000BF02E000BF00E000BFFB7D18461837BD4680BD0060004051ADFF1F50ADFF1F34ADFF1F52ADFF1FC5ADFF1FC4ADFF1F90B482B000AF0123FB7180E0ED
:4025C000464AFB791B0113440C221A70FA79444913465B0013449B000B4405331B78DBB2002B1CD0FA793E4913465B0013449B000B4404331B78DBB25BB2002B07DA394A66
:40260000FB791B01134402330C221A700EE0354AFB791B011344023308221A7006E0314AFB791B011344023380221A702B48F979FA792B4C13465B0013449B0023440633CB
:402640001B889BB2DAB20B01034406331A702348F979FA79224C13465B0013449B00234406331B889BB21B0A9BB2DAB20B01034407331A701948F979FA79194C13465B0060
:4026800013449B00234406331B889BB2DAB20B01034404331A701148F979FA79104C13465B0013449B00234406331B889BB21B0A9BB2DAB20B01034405331A70FB7901336D
:4026C000FB71FB79082B7FF67BAF074BFF221A7000BF0837BD4690BC704700BF7060004054ADFF1FFC5F00400A60004080B588B000AF0346FB7100237B830023FB7747E046
:40270000FA7FA94913465B0013449B000B4400221A70FA7FA44913465B0013449B000B44023300221A70FA7F9F4913465B0013449B000B44033300221A70FA7F9A49134664
:402740005B0013449B000B44083300221A80FA7F954913465B0013449B000B440A3300221A70FA7F904913465B0013449B000B44013300221A70FA7F8B4913465B00134412
:402780009B000B44053300221A70FB7F0133FB77FB7F082BB4D9FB79002B10D000237B770AE07B7F814A0021D1547B7F804A0021D1547B7F01337B777B7F002BF1D07D4B90
:4027C0001B78DBB2002B00F01A817A4B1B78DBB2013BDBB2184600F047FA38613B695B68FB60FB6807331B7803F04003002B08D0714B1B78DBB243F00103DAB26E4B1A7020
:4028000007E06D4B1B78DBB223F00103DAB26A4B1A703B6908333B613B691B78FB7701237B7794E03B695B687B610023BB7786E07A7F7B699B7803F07F039A4279D17A7FC7
:40284000594913465B0013449B000B4408331B889AB27B699B889A420BD27A7F7B699888514913465B0013449B000B44083302461A807B691B781A464C4B9B5CDAB27B6959
:402880005B789A4255D17A7F7B699878464913465B0013449B000B44043302461A707A7F7B69D878404913465B0013449B000B4402461A707B69DB7803F00303FB727B69CB
:4028C0009B785BB2002B1ADA7A7FFB7A012B01D1072000E00D20344913465B0013449B000B44053302461A707A7F2F4913465B0013449B000B44013301221A7019E07A7F44
:40290000FB7A012B01D1052000E00920264913465B0013449B000B44053302461A707A7F214913465B0013449B000B44013300221A707B6908337B61BB7F0133BB77BA7F7C
:40294000FB7F9A42FFF474AF7B7F01337B777B7F082B7FF667AF3B695B687B6100237B7714E07B699B7803F07F027B6918780E4913465B0013449B000B440A3302461A708D
:402980007B6908337B617B7F01337B777A7FFB7F9A42E6D300F0A2F90246084B1A6000237B830123FB7725E054ADFF1F34ADFF1F50ADFF1F4CADFF1FC5ADFF1F38ADFF1FB5
:4029C000FA7F114913465B0013449B000B4406337A8B1A80FA7F0C4913465B0013449B000B4408331B889AB27B8B13447B83FB7F0133FB77FB7F082BE2D9FFF7DBFD00BFDA
:402A00002037BD4680BD00BF54ADFF1F90B585B000AF8F4B1B78DBB2002B00F015818C4B1B78DBB2013BDBB2184600F01DF978607B6808337B607B681B78FB707B685B68D1
:402A4000BB60844B1B78BB700023FB73F7E0BB681B78BA789A4240F0EC80BB787E4AD35CDAB2BB685B789A4240F0E380BB689B7803F07F037B70BB68DB7803F003033B701B
:402A80007A78764913465B0013449B000B44033300221A707A78BB689878704913465B0013449B000B44043302461A707A78BB68D8786A4913465B0013449B000B4402465D
:402AC0001A707A78BB689888644913465B0013449B000B44083302461A80BB689B785BB2002B1ADA7A783B78012B01D1072000E00D205A4913465B0013449B000B4405334F
:402B000002461A707A78554913465B0013449B000B44013301221A7019E07A783B78012B01D1052000E009204C4913465B0013449B000B44053302461A707A784749134624
:402B40005B0013449B000B44013300221A70444A7B781B011344023301221A70404879787A783E4C13465B0013449B00234408331B889BB21B0A9BB2DAB20B0103441A70FB
:402B8000374879787A78354C13465B0013449B00234408331B889BB2DAB20B01034401331A70304879787A782C4C13465B0013449B00234406331B889BB2DAB20B01034475
:402BC00006331A70274879787A78244C13465B0013449B00234406331B889BB21B0A9BB2DAB20B01034407331A701E4879787A781A4C13465B0013449B00234406331B886D
:402C00009BB2DAB20B01034404331A70154879787A78124C13465B0013449B00234406331B889BB21B0A9BB2DAB20B01034405331A70BB680833BB60FB7B0133FB73FA7BBA
:402C4000FB789A42FFF403AF00BF1437BD4690BD4CADFF1F51ADFF1F34ADFF1F54ADFF1FFC5F00407060004080B485B000AF0346FB710F4B1B78DBB20E4ADB0013445B6876
:402C8000FB60FB681033FB60FB681B78FA799A4202D30023FB6005E0FB79DB00FA6813445B68FB60FB6818461437BD4680BC70473CADFF1F2432000080B400AF054B1B78F0
:402CC000DBB2054ADB0013445B681846BD4680BC704700BF3CADFF1F2432000080B584B000AF104B1B78DBB2013BDBB21846FFF7BBFFB860BB68002B0DD0BB685B681B796C
:402D0000FB71FB790233DB00BA681344BB60BB685B68FB6001E00023FB60FB6818461037BD4680BD4CADFF1F80B582B000AF0023FB71344B1B79DBB203F07F03BB71BB79F6
:402D4000002B5AD0BB79082B57D8BA79B9792E480B465B000B449B00034402331B78DBB243F00103D8B2284913465B0013449B000B44023302461A70BA79234913465B00DA
:402D800013449B000B44033300221A70BA79B9791D480B465B000B449B00034401331B78DBB243F00203D8B2174913465B0013449B000B44013302461A70BA7912491346F1
:402DC0005B0013449B000B4404331B78DBB25BB2002B07DA0D4ABB791B01134402338D221A7006E0094ABB791B011344023389221A70FFF7FFF80346FB71FB79184608375E
:402E0000BD4680BD0060004054ADFF1FFC5F004080B582B000AF0023FB71504B1B79DBB203F07F03BB71BB79002B00F09280BB79082B00F28E80BA79B97949480B465B008C
:402E40000B449B00034402331B78DBB223F00103D8B2434913465B0013449B000B44023302461A70BA793E4913465B0013449B000B44033300221A703A49BB793948BA79A7
:402E8000120102441278D2B202F07F02D2B21B010B441A70BA79B97931480B465B000B449B00034401331B78DBB223F00203D8B22B4913465B0013449B000B440133024629
:402EC0001A70BA79264913465B0013449B000B4404331B78DBB25BB2002B1BDABA79204913465B0013449B000B4401331B78DBB2012B07D11B4ABB791B01134402330C22D5
:402F00001A7022E0174ABB791B01134402330D221A701AE0BA79124913465B0013449B000B4401331B78DBB2012B07D10D4ABB791B011344023308221A7006E0094ABB79E6
:402F40001B011344023309221A70FFF753F80346FB71FB7918460837BD4680BD0060004054ADFF1FFC5F004080B584B000AF0023FB73154B1B79BB73144B1B78DBB2013BCD
:402F8000DBB21846FFF770FEB860BB685B681B79FB71BA7BFB799A4202D9BB7B012B0ED8BB7BBA7B0A498A5CD1B20A4AD154BB7B054A9278D1B2064AD1540123FB73FB7BED
:402FC00018461037BD4680BD006000404CADFF1F34ADFF1F50ADFF1F80B483B000AF0023FB71094B1B78DBB25BB2002B06DA064B5B78DBB2012B00D000E000BFFB791846CC
:403000000C37BD4680BC70470060004080B400AF054B1B78DBB203F040039B09DBB21846BD4680BC704700BF8F450040000000000230800803D000BF01380046FCD1704787
:40304000EFF3108072B6704780F31088704700BF80B483B000AF0023FB71134B1B78DBB203F00303012B02D0022B04D012E00E4B1B79BB7111E00C4B1B79DBB203F07F027B
:403080000A4913465B0013449B000B440A331B78BB7102E00023BB7100BFFB7918460C37BD4680BC704700BF0060004054ADFF1F014B1868704700BF4C81FF1F0E4B70B5A8
:4030C0001E460E4C0025E41AA410A54204D056F8253098470135F8E700F0AAF8084B094C1E46E41AA4100025A54204D056F8253098470135F8E770BD3C3200003C32000019
:403100003C3200004432000010B5431E0A44914204D011F8014B03F8014FF8E710BD03460244934202D003F8011BFAE77047000000000000416C6C2066756C6C0D0A00005C
:40314000004F00400C00205100405000000001400010001401408006001B0140000100400140000A004C01400002005001402000801A0140D00300488000000012010002D4
:4031800002000008B404858000000102000100000902190001010380190904000001FF00000307058102400000000000040309041003430079007000720065007300730093
:4031C00012037500730062005F006500630068006F000A036D00610069006E0000000000000081024000FF00FF000000010000009031000001000000E0310000000000002B
:403200000000000000000000E8310000010000007C310000000000000000000001000000EC310000010000000C32000043000000F8B500BFF8BC08BC9E4670474D0000005B
:40324000A5080000F8B500BFF8BC08BC9E4670472900000068320000C880FF1F88000000782C0000000000000000000001000000807F00000100000000366E01C05D00000A
:40328000180000000000E02EFF00000000000000000000000000000000000000000000000000000000000000000000002C320000000000000000000000000000000000008B
:4032C0000000000000000000000000000000000000000000000000000000000000000000000000000000000000000000EC80FF1F0000000000000000000000000000000044
:40330000000000000000000000000000000000000000000000000000000000000000000000000000000000000000000000000000000000000000000000000000000000008D
:40334000000000000000000000000000000000000000000000000000000000000000000000000000000000000000000000000000000000000000000000000000000000004D
:40338000000000000000000000000000000000000000000000000000000000000000000000000000000000000000000000000000000000000000000000000000000000000D
:4033C00000000000000000000000000000000000000000000000000000000000000000000000000000000000000000000000000000000000000000000000000000000000CD
:020000040003F7
:0200000480007A
:4000000001450040024F0040035200400164004003650040010501400107014004080140020901403C0A01401A0B01400115014002170140691801403A190140141A01403B
:40004000471B01400A40014009410140094201400843014005460140034701400748014003490140014C0140074D014004500140035101407E0201800A1B618064407C40C7
:400080008B0D880F8A388B72E240EE0438803E4058045F011F80EE042E01340136014010410449FF4AFF4BFF4DA04F045018528058045A045B045F01604062C064406540B2
:4000C00066C068C06AC06CC06EC08F0194029A03AF01B002B201B501BF10C060C105C5D1C602C807C9FFCAFFCBFFCDAFCE0FCF04D018D405D804D904DA04DB04DF01E04000
:40010000E2C0E440E540E6C0E8C0EAC0ECC0EEC00E100F081002180119801B101E5027082D803F80400142804FA9568057405E405F097002C260C401CA10CE10D009D230FB
:40014000D6D0E240E602E208EE060013020406150C130D080E0C11011346140A161419241B91200322142420253F293F2A082D122FA1301031083330342035C0360F370781
:400180003A803E113F104016410446EC470B481C49FF4AFF4BFF4EF04F44500C54015604580459045A045B045C115D115F0166C06A406B028409852086D087438B0C8C0C3E
:4001C0008E7194DC958C962297139A039C109EAC9F08A010A1D1A240A30EA414AA20ADD1AF06B0E0B1C0B30FB41FB530B922BA02BB08BF01C004C540C9FFCA07CBFFCC409C
:40020000CD20CEF0CF05D008D804D904DA04DC11DD01DF01E040E1A8E240E32000480408054109800A040B100F1010881108152016A0184019211A041DC01E482008211103
:400240002204231025092719288029412D802F283080320435023711380839203D8041014480458048804C04500C550456A057805C205E4967808740AB80C0B5C227C47EE5
:40028000CA79CCAACE16D091D220D6F0D880EE0206010E0412021E012602290130023204330134013E113F0454185604580459045B045C015D105F0101800210050106098F
:4002C000072009020A010C420D080E18102015011714180419081B011D011E691F10201025022602271529202D8B2E10344037163E6A4440450147184A044B104C204E02A9
:400300004F1056105B015E20600463426D806F28762B772080108740880289808B1299229B089D80A109A540A728B020B221B380C0F5C2F9C474CAF4CCF0CEF0D0E0D23091
:40034000D621D80DE4011280300233203620370238403C40C410CCF0CE303284362094409F02A280A402A620A720CC7012808C40944096089F02A402A620A720C41063089F
:400380009F02A402A620AB20AE84D840EE201A201B048E10C608E2020B40AB04C2088402A402A620AB04AF02E210EE608620A620E640AF401101700480048901C408DC0150
:4003C000E60100010C0110021C0200BF01BF10021F1060000C08000004180000081C00E101E70018023C00C273FF0C00000023E303C000001C0063047F8000000044000076
:400400002C3810000F1F40C0800022280000040064020500030CE00009FFFFFF62A0F0410C00000000000211040404041111000100000000000040020010301000101012A3
:400440000000000000000000000000000000000000000000000002008000408080008000000000004000000000000000C0000000000B0B00000000000E00180100000000FD
:40048000000000000000000000000000000000000000000000000000000000000000000000000000000000000000000000000000000000000000000000000000000000003C
:4004C00000000000000000000000000000000000000000000000000000000000000000000000000000000000000000000000000000000000000000000000000000000000FC
:4005000000000000000000000000000000000000000000000000000000000000000000000000000000000000000000000000000000000000000000000000000000000000BB
:40054000000000000000000000000000000000000000000000000000000000000000000000000000000000000000000000000000000000000000000000000000000000007B
:0200000490006A
:0400000000004005B7
:0200000490105A
:04000000BC90ACAF55
:0200000490303A
:0200000045E6D3
:0200000490402A
:4000000000000000000000000000000000000000000000000000000000000000000000000000000000000000000000000000000000000000000000000000000000000000C0
:400040000000000000000000000000000000000000000000000000000000000000000000000000000000000000000000000000000000000000000000000000000000000080
:400080000000000000000000000000000000000000000000000000000000000000000000000000000000000000000000000000000000000000000000000000000000000040
:4000C0000000000000000000000000000000000000000000000000000000000000000000000000000000000000000000000000000000000000000000000000000000000000
:0200000490501A
:0C00000000012E16106900012E2A564F38
:00000001FF